:020000040000fa
:080000000002040000000000f2
:020000040000fa
:100008008865000088650000886500008865000034
:100018008865000088650000886500008865000024
:10002800886500008865000088650000025e0000a1
:100038008865000088650000886500008865000004
:1000480088650000886500008865000088650000f4
:1000580088650000886500008865000088650000e4
:1000680088650000886500008865000088650000d4
:1000780088650000886500008865000088650000c4
:100088008865000088650000886500004a630000f4
:100098008865000088650000ce5c00008865000067
:1000a8008865000088650000886500008865000094
:1000b8008865000088650000886500008865000084
:1000c8008865000088650000886500008865000074
:1000d8008865000088650000886500008865000064
:1000e8008865000088650000886500008865000054
:1000f8008865000088650000886500008865000044
:100108008865000088650000886500008865000033
:100118008865000088650000886500008865000023
:100128008865000088650000886500008865000013
:100138008865000088650000886500008865000003
:1001480088650000886500008865000088650000f3
:1001580088650000886500008865000088650000e3
:1001680088650000886500008865000088650000d3
:1001780088650000886500008865000088650000c3
:1001880088650000886500008865000088650000b3
:1001980088650000886500008865000088650000a3
:1001a8008865000088650000886500008865000093
:1001b8008865000088650000886500008865000083
:1001c8008865000088650000886500008865000073
:1001d8008865000088650000886500008865000063
:1001e8008865000088650000886500008865000053
:0801f800886500008865000025
:020000040000fa
:100208008865000088650000886500008865000032
:100218008865000088650000886500008865000022
:10022800886500008865000088650000025e00009f
:100238008865000088650000886500008865000002
:1002480088650000886500008865000088650000f2
:1002580088650000886500008865000088650000e2
:1002680088650000886500008865000088650000d2
:1002780088650000886500008865000088650000c2
:100288008865000088650000886500004a630000f2
:100298008865000088650000ce5c00008865000065
:1002a8008865000088650000886500008865000092
:1002b8008865000088650000886500008865000082
:1002c8008865000088650000886500008865000072
:1002d8008865000088650000886500008865000062
:1002e8008865000088650000886500008865000052
:1002f8008865000088650000886500008865000042
:100308008865000088650000886500008865000031
:100318008865000088650000886500008865000021
:100328008865000088650000886500008865000011
:100338008865000088650000886500008865000001
:1003480088650000886500008865000088650000f1
:1003580088650000886500008865000088650000e1
:1003680088650000886500008865000088650000d1
:1003780088650000886500008865000088650000c1
:1003880088650000886500008865000088650000b1
:1003980088650000886500008865000088650000a1
:1003a8008865000088650000886500008865000091
:1003b8008865000088650000886500008865000081
:1003c8008865000088650000886500008865000071
:1003d8008865000088650000886500008865000061
:1003e8008865000088650000886500008865000051
:0803f800886500008865000023
:020000040000fa
:100400000ff121000e7f22000e0188000000000085
:10041000000020000000e000020032000001200087
:100420002002880014000700cf0007000000e00051
:1004300003003a0060ea22000100200002003700b9
:100440000000200001002000810f70000100320038
:1004500014000700000020000000e000020032004d
:100460000000020000000000f65902000000000039
:100470000040da000000fe004440a900807e200019
:100480000000e0000300320000002000a00188000e
:100490004440a800000006008a1f78008b1f7800e7
:1004a0000000060091018800800478000000eb0045
:1004b0001a003700e284440032a0b4009905ba0063
:1004c000e284440032a0b4009906ba00e2844400f9
:1004d00032a0b4000006eb00476fde00fd07b2005b
:1004e000636ce10003003a00ebff07000000eb0043
:1004f0000a003700606ce10004003a00005deb0088
:100500008b05e900fdff3e00040037006168e10053
:10051000010032000086eb000b00070019c7ba008b
:100520001905ba000e04e00003003a000a00e000da
:10053000e0ff3a0000000600fe07b2009e018800be
:100540008a047800f5ff3700395dba008b05e900b1
:100550000c003200295dba008b05e900080032006a
:100560000c00e00003003a00e284440032a0b40032
:10057000f5ff370019ddba008b05e900faff3a00f4
:100580008904e800e184440032a0b40000000600c1
:10059000aa6304000000000082650400000000005f
:1005a000b8330400000000006c25040000000000c7
:1005b00086370400000000006a57040000000000b5
:1005c0006900e100040035006d00e1000300340023
:1005d0000002b1000100320000000500100005001b
:1005e0000a00fa00e20f500034003e0070f880006c
:1005f000e10f500003003200e20f500011003a00fa
:100600000c003700032220000300e00001003a0044
:100610000040da002002e200020035002822ef004c
:1006200021e2a8002342ab000d003a002342a800bb
:100630000b003700032320000300e00001003a0014
:100640000040da003002e200020035003822ef00fc
:1006500031e2a8003342ab0001003a003342a80067
:10066000820178000b0037003102fb00e10f5000df
:1006700004003a002322ab00feff3a002411880058
:10068000030037003322ab00feff3a00a4118800bc
:100690008301e9000300e000f3ff3a00e10f50009e
:1006a00003003a002302ab00feff32000b003700cc
:1006b0003302ab00feff3200080037003300200099
:1006c000b3bf9f00c0bf9f00d1bf9f00e2bf9f008c
:1006d0006a805700420a07006fb99700020078004d
:1006e0000080fa000000060099a0a90001e6a90018
:1006f00089a0a900000006000e26ef00e7026200b4
:1007000099a0a900f6f82f0089a0a900c42add004d
:10071000a70b2000970b630068026200003088007e
:100720004322de00113088006102620062308800de
:1007300006007800233088004d22dd00ba00b600a4
:1007400000807200d0058800f0ff2d009800b600f0
:1007500000007200c004880001e6a8000000060046
:1007600020308800000006000000050003f0a20011
:10077000889fbe008a9fbe008c1f7800fe00070085
:10078000050133006450e1004f0032006420e100b5
:100790005200320003826c0007003b000905d000c4
:1007a0000306d000820f54000c065d0002003900e1
:1007b0000200320089017800030678008582550026
:1007c00004003d000003fd008103fd008502ea00f6
:1007d0008b854200840f720002003b006000100015
:1007e000e08018006011b8000005eb007a28e100f5
:1007f0000a00390006007800c75ddd00f707b20087
:10080000878075002d003700828171000a01780011
:10081000610560008180d1000080d3008502e9007d
:10082000f9ff3b00060440008784480002003b00bb
:1008300060041400e0841c000988a3000700320053
:100840008a81710082817100610164008904d10094
:100850000884d3008b05e800170037000978a3004f
:1008600013003a000b00e000130034008b05e90090
:100870000804440089844c000a4474000978a300e9
:100880000d003a000b00e000070034008b05e90082
:100890000804440089844c0001003a000b00200049
:1008a0000978a300f7ff32000001eb0002003700d7
:1008b000828171000a017800740007000cf0a70023
:1008c00001f0a000bd0037006420e10002003a0002
:1008d000838f6c00bd0033000801be000200be0023
:1008e000b6003700889fbe008a9fbe008c1f78002c
:1008f000a1000700a800330003866c006450e100eb
:100900002e0032006420e100330032006150e1002b
:100910002f0032006120e100310032008585550052
:10092000eb07b00009002000080420000500370094
:100930000804440089844c000a0031000603430087
:1009400087834b000001530081815b00f8ff330077
:100950000203be000800a0000804440089844c0083
:10096000f6ff3900c639dd00830173000100320053
:10097000130020008904d1000884d3000998a30043
:10098000050032000800a7000300a0008904d10080
:100990000884d3008b05e8008904d1000884d300c3
:1009a0000001eb000281d2003800070001f0a10035
:1009b0000cf0a70001f0a000800037006420e100e7
:1009c000820032000801be000200be00f7ff3700bf
:1009d0006120e1007d0032006000b800f3ff3700c5
:1009e0000000200001f82700f0ff3700140020006d
:1009f000af013700f4ff2f00ad0137000001be004a
:100a0000480007000470a70003f0a1006509b100c9
:100a1000160032000d0035006828e10006003500a0
:100a2000f0ff2f00f1ff27000300e00013003b0060
:100a300001002800000005000000400081804800ff
:100a40008502e900fcff3a0008003700f88f4200f9
:100a500002003c008000eb00000005008100d10096
:100a60000080d3008502e800fcff3a000300e000ac
:100a700002003b0060001000e0801800000006004b
:100a80004f89de0082017800a40137008100200038
:100a9000618055000b003d000b00200061fe2f001f
:100aa0000100e1001d0034008281710061016400d9
:100ab0008904d1000884d3000000e800faff3a005e
:100ac00071002000610064000300700002006000fb
:100ad0000900320061044400e0844c000988a5004c
:100ae000050032008b05e8006808e10002003a00ca
:100af0008904d1000884d300f20f20000258e100dd
:100b000005003d00c75ddd00f907b2008980750072
:100b100008007800000006000bf827008b00780022
:100b200000000500c70ade00f107b200f50fb200b1
:100b300008003200e1cf4200020032000170a00044
:100b400024000500810f7000010032000408050038
:100b500044000500810f700002003a0014000500f7
:100b60008502e9000000400081c04800fcff3b0016
:100b70000170a000240005000004be00e9ff07008a
:100b80000003be000405be000200be00e5ff070032
:100b9000844f7500000006000200be006450e100b2
:100ba000050036006420e100020036000968a30059
:100bb00001003a000800be000160a0004f06780066
:100bc0004f05be004f04be0000000600f0ff2f00de
:100bd000f1ff2700f9ff3700889fbe008a9fbe0003
:100be0008c1f7800e4ff0700ebff330003866c00e6
:100bf0006450e100240032006420e100270032004c
:100c00006150e100220032006120e1002100320049
:100c10008b854200eb07b1000134b800003ab80000
:100c20000804420089844a00013ab8000030b80044
:100c30008880400009014a000400330000004000a1
:100c400081804800020149008b05e900c909dd00e7
:100c5000830170000100320013002000c814de0080
:100c60004814dd004709de001200b200c808de00ab
:100c70000884700085ff070001f0a1000cf0a700b8
:100c800001f0a000cdff37006120e100cfff32006e
:100c90000801be000200be00f7ff37006150e1000e
:100ca000fcff3a00c9ff3700889fbe008a9fbe0044
:100cb00030044200b0844a0030054b0090854b0060
:100cc0006000b1000898be000a90be000440e10038
:100cd00005c8e10006d0e10007d8e10002003100bc
:100ce000680040001008e8004f05be004f04be0039
:100cf00000000600889fbe008a9fbe003004be0030
:100d00002005be000418540005985c0006185d001c
:100d100007985d00110020000440e10005c8e100d3
:100d200006d0e10007d8e100010039008000eb00a7
:100d3000108810004f05be004f04be0000000600e2
:100d40001200fa00889fbe008a9fbe008c9fbe00e2
:100d5000e0b79f00f1b79f0082bf9f0093bf9f0045
:100d60000605be000404be000000eb00d0b79f00e3
:100d7000c0b79f00b0b79f00a0b79f0090b79f007b
:100d80000006eb005fb19700cfb0970082014100f1
:100d90003fb097000200e00004003d00370007006c
:100da0007e805700c0ff07000300370033000700b4
:100db0007e805700cfff0700dfb697000d00e000f0
:100dc0000c0035006fb29700ffb297000fbb970081
:100dd0009fbb970010002000010020006011b800a8
:100de0000002720081827200020373008383730029
:100df0001b0007000c06e80001042000810f5600cc
:100e0000e0ff3a000d00e00004003d000802be00d3
:100e10000a03be007e805700a3ff07005fa897006b
:100e20000000e00005003a001fb29700afb2970043
:100e30003fb39700cfb39700090007006fb097004a
:100e4000ffb097000fb997009fb997004f06be00fb
:100e50004f05be004f04be000080fa0000000600ef
:100e60000100070000000600a4b79f00b5b79f006f
:100e7000c6b79f00d7b79f00000006004f09de00ed
:100e800082817100b3b79f004f01de008180400076
:100e900082807000a1b79f008fb097004f09de00dd
:100ea000000040000200700090b79f007fa89700ec
:100eb0004f01de00818040008280700081b79f007a
:100ec0000d0007004f3ade000000400004007000f3
:100ed000f0af9f00080007000402420085824a002c
:100ee00006034b0087834b00dfff07000802be00ac
:100ef0000a03be00000006002fb29700bfb29700a1
:100f00004fb39700dfb3970000000600881f7800fa
:100f100018002000881f780089ff07008f87e900ec
:100f20004f04780000000600801feb0084ff0700dc
:100f30008f87e90000000600889fbe008a9fbe00e0
:100f4000e00f5000e08f5800e00f5900e08f59008b
:100f50000c003d006044b8006055b800000054002b
:100f600081805c0002015d0083815d00180020002b
:100f70001500070008003d00180007000004eb0002
:100f8000050037000004eb000f00070002003d00e1
:100f90001200070018002000dcff07000800e00036
:100fa000060032006022b8006033b8000000520032
:100fb00081805a0002015b0083815b004f05be0007
:100fc0004f04be0000000600e00f5200e08f5a0000
:100fd000e00f5b00e08f5b00000006006044b8009b
:100fe0006055b8000402540085825c0006035d0071
:100ff00087835d0000000600889fbe008a9fbe00b8
:101000008c1f7800e00f5000e08f5800e00f59006f
:10101000e08f59000d003d006044b8006055b800f5
:101020000000540081805c0002015d0083815d004e
:101030001c0020000820e10009a8e1000ab0e1003e
:101040000bb8e1000d003d00080037000006eb0082
:10105000e00f5200e08f5a00e00f5b00e08f5b0072
:1010600006003d006044b8006055b800040254001a
:1010700085825c0006035d0087835d00aaff070090
:101080000c00e000060032006022b8006033b800b7
:101090000000520081805a0002015b0083815b00e6
:1010a0004f0678004f05be004f04be00000006004a
:1010b000889fbe008a9fbe00841f7800aefe070096
:1010c0004f00780011003300f0ff2f00838f6c0079
:1010d00006003b00040565000a00a7000800370071
:1010e00009f0a6001000200008003700820f54000d
:1010f000838f5c00030039001000200001003e00d7
:101100000000200009f0a7000000ea004f05be0023
:101110004f04be000000e00000000600881f7800b9
:10112000030478000300e00007003d0060001000a9
:10113000e080180060011900e081190002003b0006
:1011400001f02d00030037000400070008f0a7009d
:1011500001f0a0004f04780000000600889fbe0048
:101160008a9fbe0000827000040271000482710038
:10117000260032000004be000200be006011b8006c
:101180006b092000950220000182cf000a0039007f
:101190000541b1000082cf00070039000541b100d0
:1011a0000982cf00040039000541b1000882cf0058
:1011b000010039000541b100054252001200320021
:1011c0000a003b0082817100610164008100d1004e
:1011d0000080d3008984d3000884d3008b05e80005
:1011e0000442e800f7ff3a00070037000804440013
:1011f00089844c0000004800818048008b05e9008c
:101200000442e900f9ff3a0020fe07004f05be0046
:101210004f04be0000000600889fbe008a9fbe00eb
:101220008c9fbe008e1f7800010678000c00e00045
:1012300001003200000e7800800478000905780073
:101240008a047800b905fb000b007800dcfc07007d
:101250000000e000f9ff3a00d0022000808f550026
:1012600003003a000905780018c0b30005003700f4
:101270000044eb00b0022000808f550001003a00ce
:10128000090578006000b8008004eb000007eb005f
:10129000010037000a05e8000a0178000848a300a9
:1012a00005003a00e3c2b3009acf110002003a00f1
:1012b0000844a000f7ff37009a4578008b01fb0037
:1012c0000303b100e98f510016003e000814a0008e
:1012d0000801fb00e98f54000e0032000248a30011
:1012e000010032000e07e9008904e800a200200096
:1012f000030020006309070002cdb30002c14500ce
:101300000281fb008001eb00000041008180490068
:10131000e0ff37000248a300deff3a000e07e800b6
:10132000dcff370053c6b30083cf55000400320002
:101330008004eb0053c4b30083cf55002d003a0066
:101340005a417800d3c2b300834f510002003a00e3
:101350000834a00003003700b3c2b300834f51002c
:1013600001003a000a05e8000a0178000205780049
:101370003a42780003c3b300834f5200faff3200b1
:101380008402fb000503b1008004eb00e98f5200ea
:1013900015003e00834452008984fb000a01780056
:1013a000124278008402fb000503b100e98f52006d
:1013b0000d003e006a4bb900834452008984fb0053
:1013c00086844400524278008402fb000503b10089
:1013d000e98f520004003e006a4bb900834452007a
:1013e0008984fb00868444000838a3000100320091
:1013f0008904ea000c00e000030032000818a30092
:1014000001003200020e78009dfd07000005be00bd
:101410000006be006011b80074fd070000017800ee
:101420006000b8000200e000580032008e844400e2
:1014300032f82f00828f540003003d00220220006a
:1014400062f888005100370000082000808f5400a7
:10145000070034002002200060f888000808a3007c
:10146000450032000000200001f82f00470037003f
:101470000900e0001b003d008904ea000600370077
:10148000922f2000530125000a00be0015fd070021
:101490000005be00ea845400e98f5400f8ff3c00c8
:1014a0000600370002002000031224000a00be00dc
:1014b0000cfd07000005be008904e9000900e000fa
:1014c000f8ff3a000a06be000200200003082000d0
:1014d0000a00be0045fd07000000e00021003d00bd
:1014e0001b0037000900e00007003a001d0037002c
:1014f000922f2000530125000a00be00b6fd070010
:101500000005be00ea845400e9cf5400f8ff3e0015
:101510000600370002002000031224000a00be006b
:10152000adfd07000005be008904e9000900e000e8
:10153000f8ff3a000a06be00f2ff2f00f3f727007b
:101540000a00be002bfd07000000e000050034008b
:101550000808a3000b00320000002000010828004a
:101560000a0037000808a300010032000df0a200b5
:101570000c00be00050037000000200001f8270025
:101580000200370000002000010820004f0778000b
:101590004f06be004f05be004f04be00000006000f
:1015a0001dff37008000eb001bff37008000780034
:1015b000010078003041780003c2b300834f51002e
:1015c000faff3200e94f5100f8ff3200edc141004f
:1015d000834f510003003a008000780013c0b3002d
:1015e000050037008041eb00b4c2b300844f5100c6
:1015f00001003a00800078000000eb000200370094
:101600006a02b900040041003101fb000203b1008d
:10161000e90f5100faff36000304e0000100320038
:101620000000ea0000000600e68747008e1f7800f1
:10163000d0bf9f00e1bf9f000e0037005fba970048
:1016400014407800efb99700934078000201e90058
:10165000814f5000040032000080fb008180fb00bd
:10166000010050000600370066875700041fe8009d
:10167000030fe8000200e000f0ff3a000000eb007a
:101680004f0778006f00b10000000600800178006d
:1016900002003700b15978000201e9000200e000c1
:1016a000fcff3a00000006008001780002003700cd
:1016b000815978000201e9000200e000fcff3a00d5
:1016c0000000060000017800b1417800035978005d
:1016d0000304e000fcff3a00000006000c00fa00e2
:1016e000889fbe0000047800f0ff2700d0bf9f0055
:1016f0008004eb0099bf9f0088bf9f00a8bf9f0098
:10170000200c2000b0bf9f0078815700cfb0970019
:1017100070805700cf0007000fb897000948780085
:101720008fb89700088050004f04be000080fa0078
:10173000000006000800fa00889fbe008a9fbe00d5
:101740000084fb00d1c6b300814f50003400360046
:101750004b062000110009000b84d8008105780099
:10176000720040004300dd00c9ce2100008044002b
:101770006022b8000600200007fe23005001be00d2
:101780004000be00b40707000002be000203be0016
:1017900084bf9f0095bf9f00a6bf9f00b7bf9f005b
:1017a000aa002000110009008a85d8008005780071
:1017b000e9854500c35ddd008b8544003b02be002a
:1017c0002b03be000fb897009fb897002fb9970062
:1017d000bfb99700a00707000002be000203be00c9
:1017e00084bf9f0095bf9f00a6bf9f00b7bf9f000b
:1017f000110009000a84d800010478004344dd0088
:10180000888444003902be002903be000fb8970047
:101810009fb897002fb99700bfb997001d003700f8
:10182000ea4f500013003600aa0020001100090002
:101830000a84d80001057800690440004344dd00b3
:10184000c9ce2100088444006022b80006002000b0
:1018500007fe23003800be002801be007e070700f7
:101860004355dd008a8444003902be002903be00ce
:10187000080037004344dd00c0ce210008044000ca
:101880006022b8000600200007fe23003800be00da
:101890002801be00700707004f05be004f04be00c0
:1018a0000080fa00000006000800fa00889fbe00d1
:1018b0008a9fbe00d1c6b3000004e00023003d00b3
:1018c0000040ea000004fb00814f50000a00340091
:1018d00042062000110009000204d800a9002000df
:1018e000110009008900d800e9004000c308dd00ac
:1018f000cace210021003700ea4f5000100034000a
:10190000a2002000110009000204d80001017800a3
:10191000690040004300dd00c1ce2100008040008e
:101920004311dd00828040003102be002103be0071
:101930005001be004000be004707070038003700d6
:101940004344dd00c0ce2100320037000004fb001c
:10195000814f50002300340042062000110009008e
:101960000204d800a9002000110009008900d80055
:10197000e9004000c308dd00cac321008100450022
:101980003102be002103be008b0920008a8545007c
:101990003b00be002b01be002f0707000002be0067
:1019a0000203be0084bf9f0095bf9f00a6bf9f009b
:1019b000b7bf9f00110009000904d8000104780096
:1019c0004344dd00080545003a02be002a03be007c
:1019d0000fb897009fb897002fb99700bfb997002d
:1019e000d5ff3700ea4f500008003400a200200065
:1019f000110009000204d8000101780069004000cc
:101a00004300dd00c1c32100c4ff37004344dd00b3
:101a1000c0c32100080440003800be002801be00f9
:101a20004f05be004f04be000080fa000000060013
:101a3000d0019000028151004240a900030034000f
:101a400010017800014978000208e80001007800e0
:101a5000000006006f02b000889fbe008a9fbe0093
:101a60008c9fbe008e1f780000067800b1af9f00eb
:101a700092b79f006000b8006011b800d0af9f001f
:101a8000e1af9f00f2af9f0083b79f008006eb009d
:101a9000c5043700bfa897008100e800b1af9f00e0
:101aa00051c2b300814f500003003a00bfa8970015
:101ab0000007eb0011003700bc0090000000fb00a5
:101ac0000168a300070032000d0178008000780053
:101ad0000c007800d6ff07000000e00005003a0087
:101ae000b10437008c007800bb040700e10f400010
:101af000ad0432008d06e800ab0437000101780028
:101b000031407800d3c2b300834f50000c00320044
:101b100007003c00edc15100834f50000a00320025
:101b2000ebc14100834f50000d003a000800370020
:101b300003c3b300834f500009003a00060037008a
:101b40000e30a000edff37000e00a000ebff3700c5
:101b50000e10a000e9ff37000e20a000e7ff3700bd
:101b60000e18a300010032000e00a1000e38a300e1
:101b7000010032000e20a1008000fb000103b10033
:101b8000e98f50000c003e00020078008005eb0059
:101b90006a59b900b005fb000b03b100828545000e
:101ba000000178009000fb000103b100e98f5000b4
:101bb000f7ff3600080037008005eb00a1c2b30034
:101bc000814f500004003a009fb19700c305780090
:101bd00093b79f000201e800e0c2b300924f1000eb
:101be00016003a000ee0a00064405000d24f1000f2
:101bf00003003200020078008001eb00080037008b
:101c00009fb297004503780095b79f00e6b79f0005
:101c10000201e8000c0037006a19b9008281400017
:101c200000017800b000fb000103b100e98f500013
:101c3000f9ff3600e3b79f00030037000ec0a00095
:101c40008003eb00e7b79f00820178003340780003
:101c500003017800c1c6b300814f50002b00320051
:101c6000b3af9f0014003c00e8c05000814f50000b
:101c70002400320009003c00ecc05000814f5000ad
:101c80002a003200ebc04000814f50008c0032002f
:101c90000004e00049043200a200370061c6b3002e
:101ca000814f50001b003200e3c04000814f5000c4
:101cb0009c003a001300370031c7b300814f500039
:101cc0001e00320007003c00e4c05000814f50006d
:101cd000130032008140e800814f500091003a002b
:101ce0001200370051c7b300814f500092003200fc
:101cf000e3c04000814f50008a003a00e0cf9f00cf
:101d00000c003700e0cf9f008d0037000e40a00090
:101d1000cdff3700e0cf9f000ea0a0008800370065
:101d2000e0cf9f000e60a00085003700e0cf9f004d
:101d30000e50a0000e70a00081003700e0cf9f0081
:101d40009fb097004100780091b79f000004780091
:101d50000000e00001003a0088e2210088007800dd
:101d60000000eb00010037000000e800614178004e
:101d70000204e000fcff3a00800478006fb1970095
:101d80000200e00003003200890f51000100310021
:101d9000820478000005eb00898f550001003600b1
:101da00009855500680767002a003a0011003700ce
:101db0003c0090000068a300070032000d0178008d
:101dc000010220000c00780019ff07000000e0006d
:101dd00006003a00060037008c0078000002200060
:101de000fd030700e10f4000010032008d06e8000e
:101df0000a05e9000a00e000edff3a000085eb006b
:101e0000140037003c0090000068a3000900320075
:101e100008007800b000fb00000478000d01780095
:101e20000c00780002ff07000000e00008003a0004
:101e300008003700880078003100fb0001047800ba
:101e40008c007800e4030700e10f4000010032003d
:101e50008d06e800090078008004e9000000e00039
:101e6000e8ff3a000e00e000cf0332001100370017
:101e70003c0090000068a300070032000d017800cc
:101e8000010220000c007800e9fe07000000e000dd
:101e900006003a00060037008c007800000220009f
:101ea000cd030700e10f4000010032008d06e8007d
:101eb0000a05e9000a00e000edff3a00ba03370026
:101ec0009fb197004302780093b79f00cfa2de0036
:101ed000482bdd004820de0000007300c828de002b
:101ee000e0cf9f000e48a300080032000004e0008d
:101ef00006003200e14f400004003200f0cf9f00a6
:101f000084d79f002900200002003700f4cf9f00f3
:101f100019002000e7fc2f008f8343000704e8002e
:101f200096ff3700e0cf9f00e8fc2f000f0444002d
:101f30001900200091ff3700e0cf9f000e0cb30086
:101f40000170200081006700700067000100e00060
:101f5000190232000ec8a300020032006100200006
:101f6000e1b79f000000e000060032001fb09700bc
:101f7000680050003002be002003be0090b79f00f2
:101f8000060037001fb197004200be0092b79f00c5
:101f9000410507000002be000203be00a4b79f0077
:101fa000b5b79f00c6b79f00d7b79f006022b800a3
:101fb0006033b8002fb09700bfb097004fb19700c3
:101fc000dfb19700860407000000e0000a003d0032
:101fd0002fb09700bfb097004fb19700dfb19700c7
:101fe00003f0a200a0b79f00b1b79f00c2b79f0047
:101ff000d3b79f003e00b3000000eb0090af9f00fe
:102000006022b8006033b8002fb09700bfb09700cf
:102010004fb19700dfb19700d50407000000e00042
:102020003400320024fd2f000f0242002fb0970031
:10203000bfb097004fb19700dfb197006805070068
:102040001fa897000000e9006302b900a200200069
:10205000110009000202d80090af9f000000e000cc
:1020600002003d000000e90090af9f001fac970008
:102070000840ea000cfe07002fb29700bfb297009d
:102080004fb39700dfb39700730507000002be004f
:102090000203be00d4af9f00e5af9f00f6af9f00e4
:1020a00087b79f006022b8000600200007ff2300ca
:1020b0004b0407000000e00002003d000804e900b6
:1020c0000b0037006022b800060020004702240001
:1020d0005fa89700efa897007fa997008fb197009e
:1020e000440407000000e000020035000804e80096
:1020f00098af9f00efb29700ec8f52000f003c00aa
:10210000054078008bfd07000002be000203be0000
:102110002fb09700bfb097004fb19700dfb1970085
:10212000b10307000002be000203be00a4b79f0077
:10213000b5b79f00c6b79f00d7b79f001fac9700e9
:10214000e90f540015003c006022b8006033b8006d
:102150002fb09700bfb097004fb19700dfb1970045
:10216000830407000000e000310032002fb0970028
:10217000bfb097004fb19700dfb19700e5040700ab
:10218000e00f5000e08f5800e00f5900e08f590039
:1021900027003a00e10f540025003400040020001d
:1021a00005002e00b6e02200170124005fa897006a
:1021b000efa897007fa997008fb197000804070048
:1021c0000000e00002003d006904540001003700f7
:1021d0006804540098af9f002fd09700b2fd07000d
:1021e0000002be000203be00d4af9f00e5af9f0017
:1021f000f6af9f0087b79f002fb09700bfb0970042
:102200004fb19700dfb19700ff030700c10407003b
:102210000004be006000b8006011b800a0b79f00c5
:10222000b1b79f00c2b79f00d3b79f001600370019
:102230002fb09700bfb097004fb19700dfb1970064
:10224000b40407000004be00e30407000002be005f
:102250000203be002fb09700bfb097004fb19700a8
:10226000dfb19700720507000002be000203be0046
:10227000a4b79f00b5b79f00c6b79f00d7b79f0010
:102280000000eb0090af9f0001e3210010c0b300fd
:1022900005003700e4804000b10f5400a18f5c00be
:1022a000030039000040e800ea4f5000f9ff3a000f
:1022b000e0cf9f009fa8970081805500efb2970064
:1022c000858050000005fb000a8550000500e000f5
:1022d000010032000a05e9006300670001003200d6
:1022e0000a05e9000e28a3003900320061016700e9
:1022f0000e18a3000f0032003c0090000068a300fd
:1023000006003200b10220000200e00001003200ad
:102310008180e8000d0178000d003700b002200038
:102320000200e000010032000080e8008c0078002c
:102330000e0037000200e000220032003c00900056
:102340000068a300070032000d01780001022000a0
:102350000c007800b6fd07000000e00006003a001f
:10236000180037008c007800000220009a02070055
:10237000e10f4000130032008d06e8001100370025
:102380003c0090000068a300070032000d017800b7
:10239000010320000c007800a5fd07000000e0000c
:1023a00006003a00060037008c0078000003200089
:1023b00089020700e10f4000010032008d06e800ad
:1023c0000a05e9000a00e000edff3c005700370075
:1023d0000e38a30014003a00110037003c009000b2
:1023e0000068a300070032000d0178000102200000
:1023f0000c0078008efd07000000e00006003a00a7
:10240000060037008c0078000002200072020700ee
:10241000e10f4000010032008d06e8000a05e900e6
:102420000a00e000edff3c00610167000e18a30008
:102430000e0032003c0090000068a300050032004e
:10244000b10220000200e000220032008180e8009a
:1024500020003700b00220000200e000010032003e
:102460000080e8008c0078002c0037000200e000bb
:102470002e0032003c0090000068a30003003200f0
:102480000d01780001022000130037008c00780055
:1024900000022000210037003c01900000e32100f1
:1024a0008100fb000268a30010003200c208dd00ba
:1024b000810040001101be000800be00de040700dc
:1024c000a200200003002000eb040700010320000d
:1024d000808040000d0178000c00780054fd07005a
:1024e0000000e00010003a0010003700c208dd00d4
:1024f000810040001101be000800be00ce040700ac
:10250000a200200003002000db04070002032000db
:10251000000141008c007800020078002e020700c4
:10252000e10f4000010032008d06e8006fc89700ff
:102530008040e900e1cf9f000004e000d6ff3a00b0
:10254000130037003c0090000068a3000700320031
:102550000d017800010320000c00780034fd070015
:102560000000e00006003a00060037008c0078000a
:102570000003200018020700e10f400001003200b4
:102580008d06e8001fa897000000e90090af9f00ab
:102590001fa897000000e000eaff3c006fb397001f
:1025a000e80f53000300340080c0b300e0cf9f0069
:1025b00002003700cfeb9700e7cf9f006fc897006e
:1025c0008005fb00efb097008b8550000004e00011
:1025d000100032003c0090000068a30007003200a9
:1025e0000d017800e10220000c00780010fd0700ca
:1025f0000000e00006003a00060037008c0078007a
:10260000e0022000f4010700e10f40000100320069
:102610008d06e8006fc89700a3fc07000002be000b
:102620000203be002fb09700bfb097004fb19700d4
:10263000dfb1970008040700b60307002d0037003c
:102640003c01900001e321000000fb000268a300b0
:10265000100032004200dd00808040001101be0009
:102660000800be0074040700a20020000300200040
:102670008104070001032000808040000d017800e4
:102680000c007800eafc07000000e00010003a00af
:10269000100037004200dd00808040001101be00c4
:1026a0000800be0064040700a20020000300200010
:1026b0007104070002032000000141008c00780033
:1026c00002007800c4010700e10f40000100320061
:1026d0008d06e8006fc997000200fb004200dd0094
:1026e00001e32100008040001001be000800be0090
:1026f000610407000004be00efc897000140e90034
:10270000e0cf9f000104e000cdff3a001100370048
:102710003c0090000068a300070032000d01780023
:10272000010320000c007800c1fc07000000e0005d
:1027300006003a00060037008c00780000032000f5
:10274000a5010700e10f4000010032008d06e800fe
:102750008b05e9000b00e000edff3a000e38a30006
:10276000910132000a00e0008f0134003c0090002b
:102770000068a300070032000d017800010220006c
:102780000c007800aafc07000000e00006003a00f8
:10279000060037008c007800000220008e01070040
:1027a000e10f4000010032008d06e8000a05e90053
:1027b000eeff3a007c0137008e007800010cb20079
:1027c00011003a000000e000040032009fb19700c1
:1027d0004304be0093b79f00040037001fb2970068
:1027e0004404780094b79f00cfc4de00e00f54008b
:1027f000e08f5c000e003d003e00b300600414005a
:10280000e0841c000a0037000000e00004003200f1
:102810009fb297004504be0095b79f0004003700a3
:102820001fb397004604780096b79f008004eb0022
:10283000efb397000700e00006003a00088074003c
:1028400000f0a7000000ea000000e9004f00de00f1
:10285000e0b79f000e007800000cb200c0af9f00f0
:1028600000042000cfa89700808f50002300320082
:1028700003003c000100e000080032002d0037009a
:10288000000820004fa99700800f51000d00320072
:10289000000c2000800f510026003a0001e32100c7
:1028a00010c0b300e4804000b10f5400a18f5c0061
:1028b0001f0039000040e800ea4f5000f9ff3a00dd
:1028c0001b00370010c0b3000201200003002000ed
:1028d000820f5400838f5c0015003900441add001c
:1028e000cc11de00830172004411dd000040e800dd
:1028f000e84f5000f6ff3a000d00370010c0b3005b
:102900008200200003002000820f5400838f5c00af
:1029100007003900c31add00cd11de00838172008b
:102920004311dd000040e800eb4f5000f6ff3a0095
:10293000e0cf9f006fcb97000600fb00efb397003e
:10294000870f500002003d00e7cf9f0004003700d2
:10295000efb09700808f500001003d00e0b79f006e
:102960000b00e0000300320063006700010032004a
:102970008b05e9000ee8a300060032006fb1970056
:10298000828f550002003400828555000100370017
:102990008005eb00efc997000300fb000002eb008d
:1029a000a4b79f00808f55000200340000805500be
:1029b000a0b79f000e28a3003c0032006101670011
:1029c0000e18a3000f0032003c0090000068a30026
:1029d00006003200b10220000200e00001003200d7
:1029e0008180e8000d0178000d003700b002200062
:1029f0000200e000010032000080e8008c00780056
:102a00000e0037000200e000100032003c00900091
:102a10000068a300070032000d01780001022000c9
:102a20000c00780002fc07000000e00006003a00fd
:102a3000060037008c00780000022000e600070046
:102a4000e10f4000010032008d06e800afb29700b0
:102a50000500e00052003200050578003c009000bf
:102a60000068a300070032000d0178000103200078
:102a70000c007800eefb07000000e00006003a00c2
:102a8000060037008c00780000032000d200070009
:102a9000e10f4000010032008d06e8000a05e90060
:102aa000eeff3a00aab79f003d0037002fb3970012
:102ab0000600e000160032000e38a30014003a00b1
:102ac000060578003c0090000068a3000700320073
:102ad0000d017800010220000c007800d4fb0700f3
:102ae0000000e00006003a00060037008c00780085
:102af00000022000b8000700e10f40000100320092
:102b00008d06e8000a05e900eeff3a00aab79f002b
:102b1000610167000e18a3000f0032003c00900016
:102b20000068a30006003200b10220000200e000ad
:102b3000010032008180e8000d0178000d003700af
:102b4000b00220000200e000010032000080e80036
:102b50008c0078000e0037000200e0001000320008
:102b60003c0090000068a300070032000d017800cf
:102b7000010220000c007800adfb07000000e0001f
:102b800006003a00060037008c00780000022000a2
:102b900091000700e10f4000010032008d06e800bf
:102ba000efb397000702e9006320b9000001780045
:102bb000a2af9f004222dd0000e32100000242009c
:102bc00004057800cfad97005c003700efb19700a7
:102bd0008301e900e3b79f0000042000808f5500c7
:102be0003700320003003c000b00e0000700320019
:102bf0003d00370000082000808f55002000320083
:102c0000000c2000808f550037003a000e48a300ca
:102c1000100032001a02be000401be000800be000f
:102c2000f4b79f0085bf9f0003030700e0cf9f001c
:102c30000000fb00cf80de007fb297008fba9700c4
:102c40000401be000f0307000004540081845c00ef
:102c5000070037001a017800110009000284d8002b
:102c6000a2002000110009000280d800e1cf9f00df
:102c70006fca97000443b000e4cf9f001a003700ea
:102c800070e121000e58a3000100320060e0210035
:102c900001e32100810055000801be008100e90028
:102ca000030033008301d1000281d300fbff370012
:102cb0006f01610060417900e2cf9f000a00370098
:102cc0000800be00afaa97008502e90003003300a8
:102cd0008100d1000080d300fbff37006740600017
:102ce0000043b000e0cf9f00bc0090006fcb970086
:102cf0000600fb000168a300070032000d01780008
:102d0000800078000c00780049fb07000000e0001c
:102d100005003a00050037008c0078002e000700ff
:102d2000e10f4000010032008d06e800afab9700d4
:102d3000e3835300a7af9f00640555006fb0970071
:102d40000000e000a1ff3a000e38a3001600320098
:102d5000afb097000100e0001300340001057800d7
:102d60003c0090000068a300070032000d017800cd
:102d7000010220000c0078002dfb07000000e0009d
:102d800006003a00060037008c00780000022000a0
:102d900011000700e10f4000010032008d06e8003d
:102da0000a05e900eeff3a003fa9970012407800bb
:102db000e0cf9f000004e00036fb3a000d007800f1
:102dc0004f0778004f06be004f05be004f04be00ff
:102dd0006f02b10000000600889fbe000104780069
:102de000b80090008084eb000118a3003a00320084
:102df000180190000198a30002003a000200e000d0
:102e000035003a000190a000310498008004780059
:102e1000f90fb2000200e00002003a002800900022
:102e2000000c7800ea8f540005003a000178a300f6
:102e300003003a0088007800d0002000e6ff070079
:102e400018009000d8009000810f50000b00320055
:102e50000000e80010049800180078000948780085
:102e6000000ce80011c0b30060f0210001487800b8
:102e7000ea8f540018003a000500370088007800f7
:102e8000094078001700070080047800120037001e
:102e9000380090000088a3000f0032001801900055
:102ea000a800900048009000cdf507009800900021
:102eb000810f500004003200380090000003b3007e
:102ec000300498008084eb000000eb0010049800b0
:102ed00028009000000c7800090078004f04be0024
:102ee000000006000200fa00889fbe00a0ff9f00bd
:102ef00001047800380090000068a30033003a0015
:102f0000e200600005003a000003b30030049800be
:102f1000110498000080eb002e003700d8049000c8
:102f20000900e00006003a0012002000e680570089
:102f300048009000aaf50700190498002300370004
:102f4000a80090000100e00008003a0091f0210084
:102f500021049800010c7800210020005104980001
:102f6000110498000030a00030049800180190006f
:102f7000a80090004800900099f5070028009000f4
:102f80008080eb0011049800aff8970001487800aa
:102f9000000ce8002ff89700ea4f50000b003a00b1
:102fa000380090000088a30008003200180190004b
:102fb000a80090004800900089f507000000eb0091
:102fc00010049800a8009000010c7800aff897005a
:102fd0000100fb004f04be000080fa000000060064
:102fe00000c0da00000006002800fa00889fbe003a
:102ff0008a9fbe008c9fbe00070678008786690006
:103000000c003b00030478008704780008f0a1005e
:1030100009f0a100840f5000858f5800860f5900d9
:10302000890f5c00030033000cf0a20001003a009d
:103030000cf0a100ff0007006400e1005f00320017
:10304000780147006408e100610032006c0147002c
:10305000748557003200be001201be003a04be0063
:103060001a05be001e039000be0a9000850353009f
:1030700006003d000004fd008104fd000205fd0086
:103080008305fd008703ea00050378000df8a3001f
:103090000400320060041400e0841c0060051d0080
:1030a000e0851d006022b8007d0320000d38e1009e
:1030b0008006eb000b0039004433dd00f300b20062
:1030c0008301730039003700848272000d0278009a
:1030d000e10664008b85d1000a85d3008984d30082
:1030e0000884d3008703e900f7ff3b000800400095
:1030f000898048000a0149008b81490004003b0097
:1031000060001000e080180060011900e0811900e3
:103110000358a300090032008d827200848272007d
:10312000610260008301d1000281d3008180d3005d
:103130000080d3000603e8001b0037000348a3000b
:1031400017003a000600e000170034000603e9000b
:103150000d00a300000048008180480002014900e2
:10316000838149000348a3000f003a000600e000f5
:10317000090034000603e900000040008180480097
:10318000020149008381490001003a000003eb007d
:103190000348a300f5ff32006022b80002003700a8
:1031a00084827200618266007600070003f0a1004d
:1031b0000cf0a70003f0a000b20037006401470044
:1031c0006408e10002003a000df8a300aa003a00ea
:1031d0003200be001201be00aa003700000000004d
:1031e0008f1fd100ad0107008f87e9000000e000cc
:1031f00000000600809feb00a80107008f87e90010
:103200000000e000000006002800fa00889fbe00d1
:103210008a9fbe008c9fbe0003866b00850007005e
:103220006400e100440032006408e1004a0032001a
:103230006100e100460032006108e100490032000f
:10324000ec0647006000b8003d02be003d03be0032
:10325000f48657006011b8003d04be003d05be0075
:103260007d0320000b0037000000a0008d06e90060
:10327000130032000402420085824a0006034b001c
:1032800087834b0000004000818048000201490014
:10329000838149000802520089825a000a035b00b8
:1032a0008b835b00f0ff3b000802420089824a00ea
:1032b0000a034b008b834b008d06e900edff3a00bb
:1032c0008482720086827200f707b20087827200e1
:1032d00001003200150020001e0490003e0b9000fb
:1032e00006035400e63fb0000368a3000700320065
:1032f0000000a7000500a0008301d1000281d300d7
:103300008180d3000080d3000603e8008301d10050
:103310000281d3008180d3000080d3000002eb0043
:103320000482d2001700070003f0a1000cf0a700f0
:1033300003f0a00053003700640247006408e10076
:103340004d0032003400be003401be00f6ff3700ed
:103350006108e100480032006011b8006000b80068
:10336000f1ff370003ff270002002000fbff3700ba
:10337000801feb00490107008f87e9000000e00093
:103380000000060018002000570020000804530029
:103390000d003d000600200097fc2f000740e100d3
:1033a0001e00340084827200610260008301d1003b
:1033b0000281d3008180d3000080d3000804e8009c
:1033c000f8ff3a0047002000610460000504740023
:1033d000040464000d00320061004000e0804800f9
:1033e00060014900e081490003b8a50007003200f0
:1033f0000603e8006538e10004003a008301d100cb
:103400000281d3008180d3000080d300f87f2000a8
:103410000830e10003003500080378006000b800c0
:103420006011b8004433dd00f300b2008301730083
:1034300000000600680447000294be000094be002d
:10344000fc0447008694be008494be000900780006
:103450005b01070008007800590107009900780017
:10346000814f70000b003b000800be0034010700d4
:103470004f00b10003003700f3ff2700f2ff2f00d9
:103480006110b9004f06be004f05be004f04be00dc
:103490000080fa000000060081037800a1f5070013
:1034a0000001be006000b8000478a30013003a00d9
:1034b0006220e10015003e000d0039008301d100bb
:1034c0000281d3008180d3008301d1000281d30027
:1034d0008180d3008301d1000281d3008180d30099
:1034e0000538b000c42add00f300b2008381720009
:1034f00007f0a70003f0a00000000600f3ff27007c
:10350000f2ff2f006110b900fbff370003ff270017
:10351000f7ff37001400fa00889fbe008a9fbe00a4
:103520008c9fbe000004be000205be00680047007c
:103530000a90be000890be00210107000070a7009d
:103540000bf0a1000bf8a30020003a009e099000a8
:103550000e099000fe0090006e0090009e02900008
:103560003443200084825200c6ff32000a003c002f
:10357000b4fc2f000428e100140034008301d100c2
:103580000281d3008180d3000080d3008502e8004f
:10359000faff3a00bbff3700b40020000428e10026
:1035a00007003c0000004000818048000201490003
:1035b000838149008502e900faff3a00b1ff370034
:1035c0000300280002002000010037006011b8004d
:1035d0006000b800abff37006011b8001f01370072
:1035e0001400fa00889fbe008a9fbe008c9fbe0018
:1035f000040678000004be000205be006800470013
:103600000a90be000890be00ed0007006200e100d5
:103610000800be000a01be00040020000b003a00b2
:103620001e029000e43fb1006e009000fe0090008a
:103630000e0990009e099000f300b20005fe2300e1
:10364000858171000bf0a70003f0a000040e780044
:103650008cff3700000000002800fa00889fbe00a1
:103660008a9fbe008c9fbe0003866b0071ff07001f
:103670000028a30064003a000128a30067003a0074
:103680000008a30062003a000108a30065003a00a8
:103690001e009000be08900081064000ed3fb10082
:1036a000f4805700ee019000111ab8008e099000c6
:1036b000311bb8009e099000311cb800511db800a4
:1036c000f485570046000700fe0190003a0007000d
:1036d0008b85e8003e0007008e099000400007003f
:1036e000ee019000340007008b85e80038000700e9
:1036f0008e099000400007009e0990001b18b8003a
:10370000890440000a854800fe019000340007004b
:103710008b85e80038000700ee01900030000700bc
:103720008e0990001b18b800890440000a854800e3
:103730000a98a30008003a000402420085824a0069
:1037400006034b0087834b0008044c0089844c001f
:103750000a054d008d06e90084827200850273001f
:103760004c3add0085027200010032001500200095
:10377000443ade001400b2004538de00cb45dd00df
:103780000b007000c540de00cb4ddd008b8070006b
:103790004549de00cb55dd000b017100c551de004f
:1037a0000d037800f7fe070003f0a1000cf0a7005e
:1037b00003f0a00033ff37001b18b800850240005b
:1037c00006834800e0834b0060044c00070037008c
:1037d0001b18b8000603400087834800faff370033
:1037e0001b18b8008703400008844800e0844c00a0
:1037f00060054d00000006001b18b80008044000da
:1038000089844800faff37000108a3001aff3a0034
:103810005800be005801be00e3ff37000008a300b7
:1038200015ff3a0009047800f9ff37000000000096
:1038300007f0a200ecfd37006022b800060220006d
:103840000000d0008180d2000482d2008582d200a4
:103850000000a0000202520083825a0003003100df
:103860000202420083824a000000a1000603e90030
:10387000f3ff3a0000000600efff07000400be005f
:1038800000000600020ab900001bb9000200b800df
:10389000810042008100430000000600889fbe00b6
:1038a0008a9fbe008c9fbe000404be000605be00b9
:1038b000809fbe00829fbe002f0007000406780094
:1038c0000800be000a01be002b0007008406780035
:1038d0004f03be004f02be008d4f76007fb09700b1
:1038e00013003300f0ff2f008b8f6b0006003b00ae
:1038f0000d0666000c00a7000a00370007f0a600be
:10390000100020000a003700880f5200898f5a00eb
:103910008a0f5b008b8f5b000300390010002000d2
:1039200001003e000000200007f0a7000000ea00b0
:103930004f06be004f05be004f04be00000006004b
:10394000e48240001078a3000700320064024000c7
:103950001178a3003400be001401be000400320040
:103960000330a700000006003500be001501be00b0
:103970000330a0000000060005ff2700058261005b
:10398000070032000428e100010032002400050095
:103990000600070001003a00440005000408050085
:1039a00002000700f9ff3a00140005006f82610071
:1039b000810270008502710085027200000006001d
:1039c000800078005002be005003be004439de0083
:1039d000f700b200f37f200003016100090032000c
:1039e0000218e10016003a0085017200830173009d
:1039f000838173000008200015003a004000200079
:103a00001300370085017200830173008381730006
:103a100005003a0004a8be0006a8be001000200061
:103a20000b0037000201e9000402420085824a00cf
:103a300006034b0087834b000748a300f9ff3200c1
:103a40000740a00004a8be0006a8be002000200079
:103a5000800098009200980000000600889fbe0039
:103a600000827000040271000482710024003200a0
:103a700036432000c50020008383cf000a003900b0
:103a80000541b1008283cf00070039000541b10034
:103a90008183cf00040039000541b1008083cf004d
:103aa000010039000541b10085c353006022b80010
:103ab000120032000a003b00848272006102600042
:103ac0008301d1000281d3008180d3000080d30024
:103ad0000603e8008743e800f7ff3a0007003700d5
:103ae00000004000818048000201490083814900b4
:103af0000603e9008743e900f9ff3a0021fe0700c9
:083b00004f04be0000000600a6
:020000040000fa
:103b08001b5b0000324a000000200000002000007b
:103b180020200000202000002020000020000000bd
:103b2800537400006f6300006b2000002620000023
:103b38005072000069630000650000002d2d000030
:103b48002d2d00002d2d00002d2d00002d2d000005
:103b58002d2d00002d000000257300003a200000e4
:103b680025640000207500006e6900007473000071
:103b78002040000020250000332e0000326600009f
:103b880024000000467200006964000067650000b8
:103b980020540000656d000070650000726100002f
:103ba8007475000072650000002d00002d2d0000c6
:103bb8002d2d00002d2d00002d2d00002d2d000095
:103bc8002d2d00002d2d00002d2d00002d000000b2
:103bd800252b0000303500002e3100006620000043
:103be80044650000677200006565000073200000ee
:103bf800436500006c7300006975000073000000e5
:103c08004c610000737400002054000072610000d1
:103c18006e73000061630000746900006f6e00003d
:103c280020540000696d0000650000002d2d000083
:103c38002d2d00002d2d00002d2d00002d2d000014
:103c48002d2d00002d2d00002d2d00002d2d000004
:103c58002d2d00002d000000252e000031660000eb
:103c680020730000656300006f6e0000647300003d
:103c780020610000676f0000004e00006f20000008
:103c880074720000616e00007361000063740000cc
:103c9800696f00006e730000206800006176000004
:103ca800652000006f6300006375000072720000f9
:103cb8006564000021000000437500007272000076
:103cc800656e000074200000426100006c61000015
:103cd8006e630000650000002d2d00002d2d0000f2
:103ce8002d2d00002d2d00002d2d00002d2d000064
:103cf8002d2d00002d0000004d61000063680000bc
:103d0800696e000065200000426100006c610000df
:103d18006e630000653a000020250000332e000085
:103d28003266000024000000437500007374000030
:103d38006f6d00006572000020430000726500008e
:103d480064690000743a000020250000332e00004a
:103d58003266000024000000456d00007074000009
:103d680079200000436100007368000020420000d1
:103d7800616c0000616e0000636500000055000082
:103d88006e6c00006f610000642000006361000039
:103d98007368000020620000616c0000616e000022
:103da8006365000020660000726f00006d0000006f
:103db8006d61000063680000696e0000652e0000f8
:103dc80020570000686500006e200000666900004a
:103dd8006e69000073680000656400002c20000014
:103de800707200006573000073000000616e0000cf
:103df800792000006b65000079200000746f0000d6
:103e0800206300006f6e0000746900006e7500008a
:103e1800652e000000420000616c0000616e000029
:103e2800636500002052000065730000657400009f
:103e38003a200000253300002e32000066240000de
:103e4800004e00006f2000006361000073680000ee
:103e5800206900006e2000006d61000063680000aa
:103e6800696e000065210000004700006f6f0000c8
:103e78006462000079650000210000000020000055
:103e8800202000002020000020200000202000002a
:103e9800202000002020000020200000202000001a
:103ea800202000002020000020200000202000000a
:103eb80020200000202000002000000043750000a2
:103ec80072720000656e0000742000002573000007
:103ed8002070000072690000636500003a2000004d
:103ee800253300002e32000066240000004e00003a
:103ef8006577000020250000732000007072000024
:103f080069630000653a000020250000332e000098
:103f18003266000024000000507200006573000043
:103f28007320000059200000746f00002063000017
:103f38006f6e000066690000726d0000206e000060
:103f4800657700002070000072690000636500005a
:103f580000500000726500007373000020610000cb
:103f68006e790000206f0000746800006572000020
:103f7800206b000065790000207400006f200000ad
:103f8800696700006e6f0000726500000063000042
:103f9800686100006e67000065730000002500007e
:103fa8007320000070720000696300006520000043
:103fb800757000006461000074650000643a0000d8
:103fc80020250000332e0000326600002400000087
:103fd800257300002070000072690000636500000e
:103fe800207500006e630000686100006e670000c5
:103ff800656400003a200000253300002e320000de
:1040080066240000004900006e760000616c000024
:1040180069640000206300006f6d00006d6100009e
:104028006e640000213a00002025000073000000a3
:10403800506c000065610000736500002065000099
:104048006e74000065720000206100002076000098
:10405800616c000069640000204b000045590000b5
:10406800206100006e6400000070000072690000aa
:104078006365000020610000626f00007665000043
:10408800203000002075000070200000746f0000d0
:1040980020610000206d000061780000696d00005b
:1040a800756d0000006f00006620000035200000dc
:1040b800646f00006c6c0000617200007300000007
:1040c800457800003a200000613200002e350000db
:1040d800300000004375000072720000656e000039
:1040e800742000002573000020730000746f000026
:1040f800636b00003a200000256400002075000072
:104108006e69000074730000004e000065770000bf
:104118002025000073200000737400006f63000006
:104128006b3a00002025000064200000756e000036
:10413800697400007300000050720000657300008d
:104148007320000059200000746f000020630000f5
:104158006f6e000066690000726d0000206e00003e
:104168006577000020730000746f0000636b000027
:104178000025000073200000737400006f630000c6
:104188006b20000075700000646100007465000019
:10419800643a00002025000064200000756e0000cd
:1041a800697400007300000025730000207300008c
:1041b800746f0000636b0000207500006e630000e0
:1041c800686100006e670000656400003a20000026
:1041d80025640000207500006e69000074730000fb
:1041e80000730000746f0000636b00002061000022
:1041f800626f000076650000203000002075000026
:1042080070200000746f000020610000206d000025
:1042180061780000696d0000756d0000006f000096
:104228006620000039390000207500006e69000022
:104238007473000000450000783a00002061000017
:1042480035300000001b00005b250000643b0000c7
:1042580025640000480000002a2a00002a2a0000dd
:104268002a2a00002a2a00002a2a00002a2a0000f6
:104278002a2a00002a2a00002a2a00002a2a0000e6
:104288002a2a00002a2a00002a2a00002a2a0000d6
:104298002a2a00002a2a00002a2a00002a2a0000c6
:1042a8002a2a00002a2a00002a2a00002a2a0000b6
:1042b8002a2a00002a2a00002a2a00002a2a0000a6
:1042c8002a2a00002a2a00002a2a00002a2a000096
:1042d8002a2a00002a2a00002a2a00002a2a000086
:1042e8002a2a00002a2a00002a2a00002a2a000076
:1042f8002a2a00002a2a0000005f00005f5f0000f1
:104308005f5f00005f5f00005f5f00005f5f0000ad
:104318005f5f00005f5f00005f5f00005f5f00009d
:104328005f5f00005f5f00005f5f00005f5f00008d
:104338005f5f00005f5f00005f5f00005f5f00007d
:104348005f5f00005f5f00005f5f00005f5f00006d
:104358005f0000002a0000007c0000004578000093
:10436800706c00006f720000657200002031000060
:10437800362f00003332000020560000656e000022
:10438800646900006e670000204d00006163000052
:10439800686900006e650000205300006572000027
:1043a800766900006365000020410000707000001d
:1043b800202d0000206200007920000053610000d9
:1043c8006d7300006f6e0000204b0000616c0000f0
:1043d8006c650000720000004b45000059000000a9
:1043e80020200000200000002020000020200000e5
:1043f80020200000202000002020000020200000b5
:1044080020200000202000002020000020200000a4
:104418002020000020200000202000002020000094
:1044280020200000200000004f700000657200008e
:1044380061740000696f00006e20000028480000c9
:104448006f6d0000652000004d6500006e7500006e
:104458002920000000570000656c0000636f000011
:104468006d6500002100000050000000537400003a
:104478006f6300006b200000507200006963000049
:10448800652000004d6f000064650000004c0000ce
:1044980000530000746f0000636b0000204c0000a4
:1044a8006f610000642000004d6f0000646500002b
:1044b800005300000044000069730000706c0000a5
:1044c8006179000020530000746f0000636b0000e6
:1044d800204c000065760000656c00002026000076
:1044e800205000007269000063650000005400005d
:1044f8000044000069730000706c000061790000de
:104508002046000072690000646700006520000012
:10451800546500006d700000657200006174000051
:104528007572000065000000440000004469000046
:10453800737000006c610000792000004c6100007d
:104548007374000020540000726100006e73000054
:1045580061630000746900006f6e00002054000061
:10456800696d000065000000420000004469000019
:10457800737000006c610000792000004375000032
:1045880072720000656e0000742000004261000035
:104598006c6100006e6300006500000045000000cb
:1045a800520000005265000066720000657300004a
:1045b800682000004d6500006e750000004b00008b
:1045c8000045000078690000742000005365000071
:1045d8007276000069630000696e000067000000e1
:1045e8004f7000006572000061740000696f000080
:1045f8006e2000002850000072690000636500000a
:10460800204d0000656e000075290000002500009f
:104618006300000043680000616e000067650000e9
:10462800202500007320000050720000696300001c
:10463800650000004800000045780000697400002b
:10464800207400006f200000486f00006d650000b6
:10465800204d0000656e000075000000456e0000ea
:1046680074650000722000004b45000059200000ce
:10467800666f00006c6c00006f77000065640000d6
:104688002062000079200000707200006963000059
:1046980065200000696e0000006400006f6c000077
:1046a8006c6100007273000020280000302e0000aa
:1046b8003030000029200000746f000020630000e3
:1046c800686100006e6700006520000070720000dd
:1046d80069630000650000002d2d00002d2d0000ed
:1046e8002d2d00002d2d00002d2d00002d2d00005a
:1046f8002d2d00002d2d00002d2d00002d2d00004a
:104708002d2d00002d2d00002d2d00002d2d000039
:104718002d2d0000004f0000706500007261000040
:10472800746900006f6e00002028000053740000b8
:104738006f6300006b2000004d6500006e7500007f
:104748002900000041640000642000002573000077
:1047580020530000746f0000636b000000450000e8
:104768006e74000065720000204b0000455900007f
:10477800206600006f6c00006c6f00007765000019
:1047880064200000627900002032000020640000ec
:10479800696700006974000000760000616c000021
:1047a8007565000020280000303000002d39000019
:1047b80039290000207400006f20000061640000a7
:1047c80064200000737400006f6300006b00000039
:1047d8002d2d00002d2d00002d2d00002d2d000069
:1047e8002d2d00002d2d00002d2d00002d2d000059
:1047f8002d2d00002d2d00002d2d00002d2d000049
:104808002d2d00002d2d00002d000000494e000028
:1048180050550000543a0000200000007654000073
:10482800617300006b5400006563000068000000bd
:10483800534500004c450000435400002049000047
:10484800544500004d2e00002e2e000020200000b0
:104858000050000052450000535300002053000050
:10486800302b00002b20000020200000202000001a
:104878002000000025730000204300004f53000073
:10488800543a000020250000332e00003266000054
:104898002400000043520000454400004954000031
:1048a8003a200000253300002e3200006624000064
:1048b80020200000200000004d410000582000008a
:1048c80043520000454400004954000021200000e4
:1048d800202000002020000000560000454e000067
:1048e800444900004e4700002025000073000000e6
:1048f800202e00002e2e000000520000455400001b
:10490800555200004e3a000020250000332e0000ca
:10491800326600002420000020200000004d000026
:1049280049530000534900004e470000204300004f
:104938005245000044490000543a0000200000009d
:10494800494e000053450000525400003a20000030
:10495800253300002e3200006624000020200000cd
:1049680020000000534f000052520000592e000052
:104978002e2e0000202500007320000020200000bb
:10498800004f000055540000204f00004620000052
:10499800535400004f4300004b210000202000002a
:1049a800200000004f550000542000004f46000032
:1049b800204f00005244000045520000202d000006
:1049c8002020000000540000454d00005045000024
:1049d8005241000054550000524500002046000096
:1049e800414900004c0000005445000043480000c5
:1049f800205300004552000056490000434900007a
:104a08004e4700002020000000760000546100009e
:104a1800736b0000554900000000000011110000f0
:104a280022220000333300004444000055550000a2
:104a38006666000077770000888800009999000072
:104a4800aaaa0000bbbb0000cccc0000dddd000042
:104a5800eeee0000cecd0000acab000049440000f3
:104a68004c45000000a50000a5a50000a5a5000074
:104a7800a5a50000a5a50000a5a50000a5a5000006
:104a8800a5a50000a5a50000a5a50000a50000009b
:104a980076540000617300006b540000696d0000db
:104aa8006572000000000000765400006173000089
:104ab8006b4800006f67000000000000765400009b
:104ac800617300006b5000006f6c00006c00000008
:020000040000fa
:104ad8000401fa00881f7800408f980010c0b300c6
:104ae800004f78000040eb00104798000000eb00f2
:104af800100798000000eb00200798000000eb006a
:104b0800300798000000eb00400798000000eb0019
:104b1800500798006000b800600798007107980077
:104b28006000b800000f9800110f9800d041800075
:104b3800e10720008e8040008001eb000081eb003f
:104b4800820907003e0090000000e0001f003a00c4
:104b580010002000300798008001eb000041eb00b6
:104b68000000200001f8230026080700b0c0b300a9
:104b7800681f070040062000351b070040d82900a1
:104b8800541d07004d1407000000eb0010079800a3
:104b9800f10720008e8040001e0090000080400039
:104ba8008040eb0001487800d0c0b30060ff980057
:104bb800d0418000e10720008e8040008001eb009a
:104bc8000001eb00550b07005c0437006ef89000fd
:104bd8000000fb00ed0f500053003200f1072000e9
:104be800810f500043003200e80f50002f003200c0
:104bf800eef89000f0c2b30080cf500004003400fb
:104c0800eef8900090c3b30080cf50001400340039
:104c1800eef8900000c4b30080cf500004003400c8
:104c2800eef89000a0c5b30080cf50000c0034000f
:104c3800eef8900000c6b30080cf500004003400a6
:104c4800eef89000a0c7b30080cf500004003400f5
:104c5800eef89000e0c2b30080cf500027043a007d
:104c68001e009000e60f500026043c00eef890006d
:104c7800f20720000e0141001e00900000004100d4
:104c8800014878001e0090000000e8001007980016
:104c9800f10720008e8040001e0090000080400038
:104ca8008040eb00014878001b0437001e0090008c
:104cb8000000e000150434001e0090000000e90028
:104cc80010079800f10720008e8040001e00900019
:104cd800008040008040eb00014878001e009000f2
:104ce8006a00400092d82900610120000c1d0700cd
:104cf800090437000000eb0010079800f1072000b6
:104d08008e8040001e009000008040008040eb0034
:104d180001487800b2d8290061012000a0002000d5
:104d2800ff1c0700fc0337001e4090009e4f5000f8
:104d3800020032001e407800520507009e407800ad
:104d480011479800fef8900080c4b30080cf50004f
:104d580004003200fef8900080c6b30080cf5000f7
:104d680007003a001e407800e14f5000040032006e
:104d780010c0b300004f7800fc1c0700e6033700a2
:104d8800fef8900020c5b30080cf50000400320028
:104d9800fef8900020c7b30080cf500007003a000b
:104da8000040eb001047980040d82900c91c0700b4
:104db800c2130700ed1c0700d70337001e00fb00d5
:104dc800e20f500096013200e30f5000ad023200ae
:104dd800e10f5000cf033a00fef8900000c5b30081
:104de80080cf500004003200fef8900000c7b300e6
:104df80080cf500004003a0020c0b300004f780074
:104e0800da1c070085013700fef89000c0c4b30023
:104e180080cf500004003200fef89000c0c6b300f6
:104e280080cf500004003a0030c0b300004f780033
:104e3800ce1c070079013700fef8900030c5b3009a
:104e480080cf500004003200fef8900030c7b30055
:104e580080cf500040003a00991d0700a0092000ab
:104e68000e0040004c1b070074014700a1092000f8
:104e780081004700340009003119780042d929001f
:104e88007100200080032000a51c070022da2900f9
:104e98008100200080032000a11c07000000eb0017
:104ea80020079800270037002e0090007600b900f0
:104eb8000000780070004000f400470000804000c7
:104ec8001000be002e0190007611b9000201780092
:104ed8007401410002014700220a9000f4024700d1
:104ee8002e0190007611b9000201780082814200fb
:104ef800720820000e014100809fbe00841f7800c8
:104f0800831f780000db2900801f780002007800ea
:104f1800f0f10700ea8757002e0090006a00400071
:104f2800710820008e804000010178008000780020
:104f3800400320007a1c07002e0090000000e800c3
:104f4800200798002e009000e30f5000d6ff340091
:104f5800861c070031013700fef8900040c5b300f9
:104f680080cf500004003200fef8900040c7b30024
:104f780080cf500029003a00511d07005000200042
:104f8800771d0700500798005e009000cf80de0074
:104f9800b9ee0700e260230083cd23000cef070081
:104fa80002002000030e2400eeed070060079800c1
:104fb8007107980062dc290071002000600320005e
:104fc800571c070092dd29008100200060032000a3
:104fd800531c0700720820000e0141006e0090006b
:104fe800fe009000809fbe00c0de2900801f780070
:104ff80002007800b7f10700e68757007008200024
:105008000e00400000017800d1002000400320007d
:10501800431c0700551c070000013700fef89000ec
:1050280040c4b30080cf500004003200fef8900066
:1050380040c6b30080cf500033003a00201d07005f
:10504800a00920000e004000d31a07007401470091
:10505800a1092000810047003400090031197800b7
:1050680042e0290071002000500320002c1c07009a
:10507800a2e129008100200050032000281c07001d
:105088004e389000de3890005aee07000000780095
:105098000000e000160032002e3a9000be3a900060
:1050a8004e389000de3890000001be000400be00bb
:1050b800aced0700720820000e014100809fbe0081
:1050c80000e32900801f78000200780081f10700c2
:1050d800e6875700700820000e00400000017800a5
:1050e800d1002000700320000d1c070004003700c9
:1050f80012e42900d100200000032000081c07004a
:105108001a1c0700c5003700fef8900020c4b30041
:1051180080cf500004003200fef8900020c6b30093
:1051280080cf500033003a00e51c0700a00920009a
:105138000e004000981a070074014700a1092000da
:1051480081004700340009003119780002e629007f
:105158007100200080032000f11b070002e72900ee
:105168008100200080032000ed1b07006e309000b6
:10517800fe309000720820000e014100809fbe00a2
:1051880000e82900801f78000200780051f107002c
:10519800e6875700700820000e00400000017800e4
:1051a800c100200040032000dd1b07000e389000de
:1051b8009e389000720820000e014100809fbe00ba
:1051c80080e92900801f78000200780041f107007b
:1051d800e6875700700820000e00400000017800a4
:1051e800d100200040032000cd1b0700df1b070073
:1051f8008a003700fef8900050c4b30080cf5000fa
:1052080004003200fef8900050c6b30080cf500072
:105218005c003a00aa1c0700a00920000e0040000c
:105228005d1a070074014700a109200081004700aa
:10523800340009003119780002eb290071002000c0
:1052480060032000b61b070092dd290081002000c2
:1052580060032000b21b07006e309000fe30900003
:10526800720820000e014100809fbe0000e829005e
:10527800801f78000200780016f10700e6875700c3
:10528800700820000e00400000017800a1002000f6
:1052980040032000a21b07006e309000fe309000f3
:1052a800d4ed0700000078000000e0002f00320075
:1052b80032ec2900c100200000032000981b0700e1
:1052c800c2ed2900d100200000032000941b070034
:1052d800a2ef2900e100200000032000901b070036
:1052e800d0418000e10720008e8040008001eb0063
:1052f8000081eb00950707008001eb0062c0b30056
:105308006000b8003f060700a00920000e0040001a
:10531800211a070074014700a109200081004700f5
:1053280034000900311978006e309000fe3090008a
:10533800720820000e014100809fbe00f0f0290095
:10534800801f780002007800e2f00700e687570027
:10535800700820000e0040000001780011012000b4
:10536800000320006e1b07000400370052f22900da
:10537800e100200060032000691b07007b1b070079
:1053880026003700fef89000b0c4b30080cf50006c
:1053980004003200fef89000b0c6b30080cf500081
:1053a8001e003a00461c070092f32900c1002000a5
:1053b800b00320005a1b0700803e20002419070074
:1053c80040d82900431b070022f429008000eb0085
:1053d8000000eb00521b07008001eb000041eb00ce
:1053e8006000b800070607000040eb00104798006f
:1053f8000000eb00300798000000eb001007980051
:10540800f10720008e8040001e00900000804000c0
:105418008040eb0001487800370237003602370039
:105428001000200040079800a00920000e0040004e
:10543800d919070074014700a1092000810047001d
:1054480034000900311978007ef890000004e0006b
:1054580001003a0028023700b00020002007980019
:105468000700370032f42900ae0090000003200046
:105478002b1b07002e0090000000e8002007980072
:105488002e009000f20f5000f6ff3400f0072000c5
:105498000e0040008000e800700820000e00400068
:1054a80086f00700700820000e0040003bf007005f
:1054b800000f9800110f980018c0b3006011b800d1
:1054c8000e0890009e08900048ed07000000e000dc
:1054d80001003c000044eb000804e000c500320075
:1054e80018c0b30002002000030a24000e08900030
:1054f8009e0890003bed07000000e000010034002a
:105508000044eb000804e000ba0032000000eb00a1
:1055180020079800b40037007ef990002e00900014
:105528007600b90000007800000047004050900065
:10553800804f51000b0032007ef890000001fb0004
:105548002e0090007600b9000000780000004700a7
:10555800405090000000fb000002b000800f510096
:105568009e003a000000eb00400798002e009000d3
:105578007600b9000000780070004000f400470091
:10558800008040001000be00740247002e01900009
:105598007611b900020178008201420072082000e9
:1055a8000e014100809fbe00831f780020f629006d
:1055b800801f78000200780046f00700e88757004f
:1055c800700820000e00400000017800b1002000a3
:1055d80000032000d21a0700740147002e00900033
:1055e8007600b900000078008001410072082000b0
:1055f8000e0141000e0890009e089000809fbe009a
:10560800831f7800b0f72900801f78000200780017
:1056180030f00700e8875700700820000e004000af
:1056280000017800c100200000032000bc1a070018
:1056380002f92900e100200000032000b81a070041
:10564800d2fa2900f100200000032000b41a070054
:10565800b2fc29000101200000032000b01a070055
:1056680022f429002101200000032000ac1a0700c1
:10567800d0418000e10720008e8040008001eb00cf
:105688000081eb00b1060700eef8900090c5b3006a
:1056980080cf500004003200eef8900090c7b300ad
:1056a80080cf500029003a00ae01900072c0b300cc
:1056b8000e0890009e08900052050700a0092000df
:1056c8000e0040003419070074014700a1092000aa
:1056d8008100470034000900311978002e0090003d
:1056e8007600b9000000780070004000f400470020
:1056f800008040001000be00740247002e01900098
:105708007611b90002017800820142007208200077
:105718000e014100809fbe00831f780030fd2900e4
:10572800801f780002007800eaef0700e88757003a
:10573800700820000e0040000001780021012000c0
:1057480000032000761a070023003700a009200074
:105758000e0040001019070074014700a10920003d
:105768008100470034000900311978002e009000ac
:105778007600b9000000780070004000f40047008f
:10578800008040001000be00740247002e01900007
:105798007611b900020178008201420072082000e7
:1057a8000e014100809fbe00831f7800c0fe2900c3
:1057b800801f780002007800c6ef0700e8875700ce
:1057c800700820000e004000000178002101200030
:1057d80000032000521a0700641a07002e009000e8
:1057e8000000e800200798002e009000e30f50000a
:1057f80049ff34004e0090000000e0002000320015
:10580800700820000e004000f10720008e80400044
:10581800811f780071002a00811f7800adef070012
:10582800e4875700700820000e004000000178004f
:10583800b100200000032000391a0700c2012a0025
:10584800d100200000032000351a070092032a0027
:10585800e100200000032000311a070072052a0029
:10586800f1002000000320002d1a070042062a003c
:105878001101200000032000291a07003b1a070025
:105888001d0137001000200040079800a0092000e3
:105898000e004000c018070074014700a10920004d
:1058a8008100470034000900311978007ef8900023
:1058b8000004e00001003a000f013700b0002000aa
:1058c800200798000700370032f42900ae00900046
:1058d80000032000121a07002e0090000000e800c4
:1058e800200798002e009000f20f5000f6ff3400b9
:1058f800f00720000e0040008000e800700820003b
:105908000e0040006def0700700820000e004000f8
:1059180024ef0700cf80de0057ec0700000f980047
:10592800110f980018c0b3006011b8000e0890005d
:105938009e0890002dec07000000e00001003c00ec
:105948000044eb000804e000c700320018c0b300b0
:1059580002002000632c24000e0890009e0890008e
:1059680020ec07000000e000010034000044eb00d8
:105978000804e000bc0032000000eb00200798009b
:10598800b60037007ef990002e0090007600b9002e
:10599800000078000000470040509000804f510000
:1059a8000b0032007ef890000001fb002e009000f2
:1059b8007600b900000078000000470040509000d1
:1059c8000000fb000002b000800f5100a0003a0068
:1059d8000000eb00400798002e0090007600b90008
:1059e8000000780074004000000047002009900083
:1059f800f40147002e0090007600b90000007800fe
:105a080080804100700820000e004000821f78004e
:105a1800811f7800e1062a00811f78002def07001a
:105a2800e6875700700820000e004000000178004b
:105a3800b100200000032000b91907002e009000d3
:105a48007600b900000078007400400000004700ac
:105a5800200c90000e0890009e089000e5eb0700cf
:105a68000000780000014400f40147002e00900077
:105a78007600b9000000780080804100700820009e
:105a88000e004000821f7800811f780091082a00cc
:105a9800811f78000fef0700e68757007008200085
:105aa8000e00400000017800c10020000003200023
